{
  "contractName": "ERC721",
  "abi": [
    {
      "inputs": [],
      "stateMutability": "nonpayable",
      "type": "constructor"
    },
    {
      "anonymous": false,
      "inputs": [
        {
          "indexed": true,
          "internalType": "address",
          "name": "_owner",
          "type": "address"
        },
        {
          "indexed": true,
          "internalType": "address",
          "name": "_approved",
          "type": "address"
        },
        {
          "indexed": true,
          "internalType": "uint256",
          "name": "_tokenId",
          "type": "uint256"
        }
      ],
      "name": "Approval",
      "type": "event"
    },
    {
      "anonymous": false,
      "inputs": [
        {
          "indexed": true,
          "internalType": "address",
          "name": "_from",
          "type": "address"
        },
        {
          "indexed": true,
          "internalType": "address",
          "name": "_to",
          "type": "address"
        },
        {
          "indexed": true,
          "internalType": "uint256",
          "name": "_tokenId",
          "type": "uint256"
        }
      ],
      "name": "Transfer",
      "type": "event"
    },
    {
      "inputs": [
        {
          "internalType": "bytes4",
          "name": "interfaceId",
          "type": "bytes4"
        }
      ],
      "name": "supportsInterface",
      "outputs": [
        {
          "internalType": "bool",
          "name": "",
          "type": "bool"
        }
      ],
      "stateMutability": "view",
      "type": "function"
    },
    {
      "inputs": [
        {
          "internalType": "address",
          "name": "_owner",
          "type": "address"
        }
      ],
      "name": "balanceOf",
      "outputs": [
        {
          "internalType": "uint256",
          "name": "",
          "type": "uint256"
        }
      ],
      "stateMutability": "view",
      "type": "function"
    },
    {
      "inputs": [
        {
          "internalType": "uint256",
          "name": "_tokenId",
          "type": "uint256"
        }
      ],
      "name": "ownerOf",
      "outputs": [
        {
          "internalType": "address",
          "name": "",
          "type": "address"
        }
      ],
      "stateMutability": "view",
      "type": "function"
    },
    {
      "inputs": [
        {
          "internalType": "address",
          "name": "_from",
          "type": "address"
        },
        {
          "internalType": "address",
          "name": "_to",
          "type": "address"
        },
        {
          "internalType": "uint256",
          "name": "_tokenId",
          "type": "uint256"
        }
      ],
      "name": "transferFrom",
      "outputs": [],
      "stateMutability": "nonpayable",
      "type": "function"
    },
    {
      "inputs": [
        {
          "internalType": "address",
          "name": "_to",
          "type": "address"
        },
        {
          "internalType": "uint256",
          "name": "_tokenId",
          "type": "uint256"
        }
      ],
      "name": "approve",
      "outputs": [],
      "stateMutability": "nonpayable",
      "type": "function"
    }
  ],
  "bytecode": "0x608060405234801561001057600080fd5b506100407f01ffc9a7a5cef8baa21ed3c5c0d7e23accb804b619e9333b597f47a0d84076e26100b860201b60201c565b6100b37f22c82707ba960a14c7592ffb6b8cfaa073fed0048a84cc7fa41f6b5bd8e7f2e47f3a6eb71757dfc6e784c1459d26270140c2c147d95ca985c80026fc5301c3eca17f8a7e378434598edc36d108689a030cbc9d7d465de4f74c71bae1028eed6a881b18186100b860201b60201c565b610157565b63ffffffff60e01b817bffffffffffffffffffffffffffffffffffffffffffffffffffffffff191614156100eb57600080fd5b6001600080837bffffffffffffffffffffffffffffffffffffffffffffffffffffffff19167bffffffffffffffffffffffffffffffffffffffffffffffffffffffff1916815260200190815260200160002060006101000a81548160ff02191690831515021790555050565b610c32806101666000396000f3fe608060405234801561001057600080fd5b50600436106100575760003560e01c806301ffc9a71461005c578063095ea7b31461008c57806323b872dd146100a85780636352211e146100c457806370a08231146100f4575b600080fd5b61007660048036038101906100719190610803565b610124565b60405161008391906109c3565b60405180910390f35b6100a660048036038101906100a191906107c7565b61018b565b005b6100c260048036038101906100bd9190610778565b6102bb565b005b6100de60048036038101906100d9919061082c565b6102cb565b6040516100eb91906109a8565b60405180910390f35b61010e6004803603810190610109919061074f565b61037d565b60405161011b9190610a5e565b60405180910390f35b6000806000837bffffffffffffffffffffffffffffffffffffffffffffffffffffffff19167bffffffffffffffffffffffffffffffffffffffffffffffffffffffff1916815260200190815260200160002060009054906101000a900460ff169050919050565b6000610196826102cb565b90508073ffffffffffffffffffffffffffffffffffffffff168373ffffffffffffffffffffffffffffffffffffffff1614156101d157600080fd5b8073ffffffffffffffffffffffffffffffffffffffff163373ffffffffffffffffffffffffffffffffffffffff161461020957600080fd5b826003600084815260200190815260200160002060006101000a81548173ffffffffffffffffffffffffffffffffffffffff021916908373ffffffffffffffffffffffffffffffffffffffff160217905550818373ffffffffffffffffffffffffffffffffffffffff168273ffffffffffffffffffffffffffffffffffffffff167f8c5be1e5ebec7d5bd14f71427d1e84f3dd0314c0f7b2291e5b200ac8c7c3b92560405160405180910390a4505050565b6102c683838361043c565b505050565b6000806001600084815260200190815260200160002060009054906101000a900473ffffffffffffffffffffffffffffffffffffffff169050600073ffffffffffffffffffffffffffffffffffffffff168173ffffffffffffffffffffffffffffffffffffffff161415610374576040517f08c379a000000000000000000000000000000000000000000000000000000000815260040161036b906109fe565b60405180910390fd5b80915050919050565b60008073ffffffffffffffffffffffffffffffffffffffff168273ffffffffffffffffffffffffffffffffffffffff1614156103ee576040517f08c379a00000000000000000000000000000000000000000000000000000000081526004016103e5906109fe565b60405180910390fd5b610435600260008473ffffffffffffffffffffffffffffffffffffffff1673ffffffffffffffffffffffffffffffffffffffff168152602001908152602001600020610662565b9050919050565b600073ffffffffffffffffffffffffffffffffffffffff168273ffffffffffffffffffffffffffffffffffffffff1614156104ac576040517f08c379a00000000000000000000000000000000000000000000000000000000081526004016104a3906109de565b60405180910390fd5b8273ffffffffffffffffffffffffffffffffffffffff166104cc826102cb565b73ffffffffffffffffffffffffffffffffffffffff1614610522576040517f08c379a000000000000000000000000000000000000000000000000000000000815260040161051990610a3e565b60405180910390fd5b816001600083815260200190815260200160002060006101000a81548173ffffffffffffffffffffffffffffffffffffffff021916908373ffffffffffffffffffffffffffffffffffffffff1602179055506105bb600260008573ffffffffffffffffffffffffffffffffffffffff1673ffffffffffffffffffffffffffffffffffffffff168152602001908152602001600020610670565b610602600260008473ffffffffffffffffffffffffffffffffffffffff1673ffffffffffffffffffffffffffffffffffffffff168152602001908152602001600020610693565b808273ffffffffffffffffffffffffffffffffffffffff168473ffffffffffffffffffffffffffffffffffffffff167fddf252ad1be2c89b69c2b068fc378daa952ba7f163c4a11628f55a4df523b3ef60405160405180910390a4505050565b600081600001549050919050565b610688600182600001546106b290919063ffffffff16565b816000018190555050565b60018160000160008282546106a89190610a8a565b9250508190555050565b60008082846106c19190610ae0565b905083831115610706576040517f08c379a00000000000000000000000000000000000000000000000000000000081526004016106fd90610a1e565b60405180910390fd5b8091505092915050565b60008135905061071f81610bb7565b92915050565b60008135905061073481610bce565b92915050565b60008135905061074981610be5565b92915050565b60006020828403121561076157600080fd5b600061076f84828501610710565b91505092915050565b60008060006060848603121561078d57600080fd5b600061079b86828701610710565b93505060206107ac86828701610710565b92505060406107bd8682870161073a565b9150509250925092565b600080604083850312156107da57600080fd5b60006107e885828601610710565b92505060206107f98582860161073a565b9150509250929050565b60006020828403121561081557600080fd5b600061082384828501610725565b91505092915050565b60006020828403121561083e57600080fd5b600061084c8482850161073a565b91505092915050565b61085e81610b14565b82525050565b61086d81610b26565b82525050565b6000610880602c83610a79565b91507f4572726f72202d20455243373231207472616e7366657220746f20746865207a60008301527f65726f20616464726573732e00000000000000000000000000000000000000006020830152604082019050919050565b60006108e6601f83610a79565b91507f45524337323120757365732061206e6f6e2d7a65726f20616464726573732e006000830152602082019050919050565b6000610926601e83610a79565b91507f536166654d6174683a205375627472616374696f6e204f766572666c6f7700006000830152602082019050919050565b6000610966601683610a79565b91507f596f7520646f6e74206f776e2069742064756d6d792e000000000000000000006000830152602082019050919050565b6109a281610b7e565b82525050565b60006020820190506109bd6000830184610855565b92915050565b60006020820190506109d86000830184610864565b92915050565b600060208201905081810360008301526109f781610873565b9050919050565b60006020820190508181036000830152610a17816108d9565b9050919050565b60006020820190508181036000830152610a3781610919565b9050919050565b60006020820190508181036000830152610a5781610959565b9050919050565b6000602082019050610a736000830184610999565b92915050565b600082825260208201905092915050565b6000610a9582610b7e565b9150610aa083610b7e565b9250827fffffffffffffffffffffffffffffffffffffffffffffffffffffffffffffffff03821115610ad557610ad4610b88565b5b828201905092915050565b6000610aeb82610b7e565b9150610af683610b7e565b925082821015610b0957610b08610b88565b5b828203905092915050565b6000610b1f82610b5e565b9050919050565b60008115159050919050565b60007fffffffff0000000000000000000000000000000000000000000000000000000082169050919050565b600073ffffffffffffffffffffffffffffffffffffffff82169050919050565b6000819050919050565b7f4e487b7100000000000000000000000000000000000000000000000000000000600052601160045260246000fd5b610bc081610b14565b8114610bcb57600080fd5b50565b610bd781610b32565b8114610be257600080fd5b50565b610bee81610b7e565b8114610bf957600080fd5b5056fea26469706673582212203130f1c2f9e11a5ddba5e9a85d698a91c0363d649d0755049e86998d4b46c73d64736f6c63430008000033",
  "immutableReferences": {},
  "source": "// SPDX-License-Identifier: MIT\npragma solidity ^0.8.0;\n\nimport './interfaces/ERC165.sol';\nimport './interfaces/IERC721.sol';\nimport './Libraries/Counters.sol';\n\n\ncontract ERC721 is ERC165, IERC721 {\n  using SafeMath for uint256;\n  using Counters for Counters.Counter;\n\n  //mapping in solidity creates a hash table of key pair values\n\n\n  //mapping from token id to the owner\n  mapping (uint256 => address) private _tokenOwner;\n  //mapping from owner to number of tokens\n  mapping (address => Counters.Counter) private _ownedTokens;\n  //When sending NFT's need approval processes.\n  mapping(uint256 => address) private _tokenApprovals;\n\n  constructor () {\n    _registerInterface(bytes4(keccak256('balanceOf(bytes4)')\n    ^keccak256('ownerOf(bytes4)')\n    ^keccak256('transferFrom(bytes4)')));\n  }\n\n  function balanceOf(address _owner) public override view returns(uint256) {\n    require(_owner != address(0), \"ERC721 uses a non-zero address.\");\n    return _ownedTokens[_owner].current();\n  }\n\n  function ownerOf(uint256 _tokenId) public override view returns(address) {\n    address owner = _tokenOwner[_tokenId];\n    require(owner != address(0), \"ERC721 uses a non-zero address.\");\n    return owner;\n  }\n\n\n  //Does the tokenId exists already?\n  function _exists(uint256 tokenId) internal view returns(bool) {\n    //Setting address of NFT owner to check the mapping of the address from token owner.\n    address owner = _tokenOwner[tokenId];\n    return owner != address(0);\n  }\n\n  //Function is not safe because of the math. \n  //Solidity doesn't handle any mathematic overflow. \n\n\n  function _mint(address to, uint256 tokenId) internal virtual {\n    //Requires the address isn't zero.\n    require(to != address(0), \"ERC721 needs to have an ethereum address\");\n    //Mint an ID that doesn't already exists.\n    require(!_exists(tokenId), \"ERC721, token already minted\");\n    //We are adding a new address with a tokenId for minting.\n    _tokenOwner[tokenId] = to;\n    //keeping track of each address that is minting and increment 1.\n    _ownedTokens[to].increment();\n\n    emit Transfer(address(0), to, tokenId);\n\n  }\n\n  function _transferFrom(address _from, address _to, uint256 _tokenId) internal {\n    //Requires\n    require(_to != address(0), \"Error - ERC721 transfer to the zero address.\");\n    require(ownerOf(_tokenId) == _from, \"You dont own it dummy.\");\n\n    //1. Add token Id to new owner.\n    _tokenOwner[_tokenId] = _to;\n    //2. update the balance of the previous owner\n    _ownedTokens[_from].decrement();\n    //3. update the balance of the new owner\n    _ownedTokens[_to].increment();\n    //4. add the safe functionality\n    //I just had them backwards for future reference.\n\n    emit Transfer(_from, _to, _tokenId);\n\n  }\n\n  function transferFrom(address _from, address _to, uint256 _tokenId) public override {\n    _transferFrom(_from, _to, _tokenId);\n  }\n\n  //APPROVAL\n\n  function approve(address _to, uint256 _tokenId) public override {\n    address owner = ownerOf(_tokenId);\n\n    require(_to != owner);\n    require(msg.sender == owner);\n    _tokenApprovals[_tokenId] = _to;\n\n    emit Approval(owner, _to, _tokenId);\n  }\n\n\n  /*\n\n  - Minting function\n  - Keep track of addresses are minting\n  - NFT to point to an address\n  - Keep track of Token ID's\n  - Keep track of token owner addresses to token id's\n  - keep track of how many tokens an owner address has\n  - create an event that emits a transfer log - contract address, where it's minted to, and the ID.\n\n  */\n\n}\n",
  "sourcePath": "/Users/chypchrome/Desktop/NFT-Marketplace/nft-marketplace-starter-kit/contracts/ERC721.sol",
  "compiler": {
    "name": "solc",
    "version": "0.8.0+commit.c7dfd78e.Emscripten.clang"
  },
  "schemaVersion": "3.4.4",
  "updatedAt": "2022-01-28T18:01:39.495Z",
  "devdoc": {
    "kind": "dev",
    "methods": {
      "balanceOf(address)": {
        "details": "NFTs assigned to the zero address are considered invalid, and this  function throws for queries about the zero address.",
        "params": {
          "_owner": "An address for whom to query the balance"
        },
        "returns": {
          "_0": "The number of NFTs owned by `_owner`, possibly zero"
        }
      },
      "ownerOf(uint256)": {
        "details": "NFTs assigned to zero address are considered invalid, and queries  about them do throw.",
        "params": {
          "_tokenId": "The identifier for an NFT"
        },
        "returns": {
          "_0": "The address of the owner of the NFT"
        }
      },
      "transferFrom(address,address,uint256)": {
        "details": "Throws unless `msg.sender` is the current owner, an authorized  operator, or the approved address for this NFT. Throws if `_from` is  not the current owner. Throws if `_to` is the zero address. Throws if  `_tokenId` is not a valid NFT.",
        "params": {
          "_from": "The current owner of the NFT",
          "_to": "The new owner",
          "_tokenId": "The NFT to transfer"
        }
      }
    },
    "version": 1
  },
  "userdoc": {
    "kind": "user",
    "methods": {
      "balanceOf(address)": {
        "notice": "Count all NFTs assigned to an owner"
      },
      "ownerOf(uint256)": {
        "notice": "Find the owner of an NFT"
      },
      "transferFrom(address,address,uint256)": {
        "notice": "Transfer ownership of an NFT -- THE CALLER IS RESPONSIBLE  TO CONFIRM THAT `_to` IS CAPABLE OF RECEIVING NFTS OR ELSE  THEY MAY BE PERMANENTLY LOST"
      }
    },
    "version": 1
  }
}