{
  "contractName": "ERC721Enumerable",
  "abi": [
    {
      "inputs": [],
      "stateMutability": "nonpayable",
      "type": "constructor"
    },
    {
      "anonymous": false,
      "inputs": [
        {
          "indexed": true,
          "internalType": "address",
          "name": "_owner",
          "type": "address"
        },
        {
          "indexed": true,
          "internalType": "address",
          "name": "_approved",
          "type": "address"
        },
        {
          "indexed": true,
          "internalType": "uint256",
          "name": "_tokenId",
          "type": "uint256"
        }
      ],
      "name": "Approval",
      "type": "event"
    },
    {
      "anonymous": false,
      "inputs": [
        {
          "indexed": true,
          "internalType": "address",
          "name": "_from",
          "type": "address"
        },
        {
          "indexed": true,
          "internalType": "address",
          "name": "_to",
          "type": "address"
        },
        {
          "indexed": true,
          "internalType": "uint256",
          "name": "_tokenId",
          "type": "uint256"
        }
      ],
      "name": "Transfer",
      "type": "event"
    },
    {
      "inputs": [
        {
          "internalType": "address",
          "name": "_to",
          "type": "address"
        },
        {
          "internalType": "uint256",
          "name": "_tokenId",
          "type": "uint256"
        }
      ],
      "name": "approve",
      "outputs": [],
      "stateMutability": "nonpayable",
      "type": "function"
    },
    {
      "inputs": [
        {
          "internalType": "address",
          "name": "_owner",
          "type": "address"
        }
      ],
      "name": "balanceOf",
      "outputs": [
        {
          "internalType": "uint256",
          "name": "",
          "type": "uint256"
        }
      ],
      "stateMutability": "view",
      "type": "function"
    },
    {
      "inputs": [
        {
          "internalType": "uint256",
          "name": "_tokenId",
          "type": "uint256"
        }
      ],
      "name": "ownerOf",
      "outputs": [
        {
          "internalType": "address",
          "name": "",
          "type": "address"
        }
      ],
      "stateMutability": "view",
      "type": "function"
    },
    {
      "inputs": [
        {
          "internalType": "bytes4",
          "name": "interfaceId",
          "type": "bytes4"
        }
      ],
      "name": "supportsInterface",
      "outputs": [
        {
          "internalType": "bool",
          "name": "",
          "type": "bool"
        }
      ],
      "stateMutability": "view",
      "type": "function"
    },
    {
      "inputs": [
        {
          "internalType": "address",
          "name": "_from",
          "type": "address"
        },
        {
          "internalType": "address",
          "name": "_to",
          "type": "address"
        },
        {
          "internalType": "uint256",
          "name": "_tokenId",
          "type": "uint256"
        }
      ],
      "name": "transferFrom",
      "outputs": [],
      "stateMutability": "nonpayable",
      "type": "function"
    },
    {
      "inputs": [
        {
          "internalType": "uint256",
          "name": "index",
          "type": "uint256"
        }
      ],
      "name": "tokenByIndex",
      "outputs": [
        {
          "internalType": "uint256",
          "name": "",
          "type": "uint256"
        }
      ],
      "stateMutability": "view",
      "type": "function"
    },
    {
      "inputs": [
        {
          "internalType": "address",
          "name": "owner",
          "type": "address"
        },
        {
          "internalType": "uint256",
          "name": "index",
          "type": "uint256"
        }
      ],
      "name": "tokenOfOwnerByIndex",
      "outputs": [
        {
          "internalType": "uint256",
          "name": "",
          "type": "uint256"
        }
      ],
      "stateMutability": "view",
      "type": "function"
    },
    {
      "inputs": [],
      "name": "totalSupply",
      "outputs": [
        {
          "internalType": "uint256",
          "name": "",
          "type": "uint256"
        }
      ],
      "stateMutability": "view",
      "type": "function"
    }
  ],
  "bytecode": "0x608060405234801561001057600080fd5b506100407f01ffc9a7a5cef8baa21ed3c5c0d7e23accb804b619e9333b597f47a0d84076e261012b60201b60201c565b6100b37f22c82707ba960a14c7592ffb6b8cfaa073fed0048a84cc7fa41f6b5bd8e7f2e47f3a6eb71757dfc6e784c1459d26270140c2c147d95ca985c80026fc5301c3eca17f8a7e378434598edc36d108689a030cbc9d7d465de4f74c71bae1028eed6a881b181861012b60201b60201c565b6101267f8230223f691b981717299fae9549350a0d894555723531f02108b1f522c1a7977f6da5e1284143cdd2d15038a59bde3be031250f00291d64494c12d967b3a4e0c37fc53637662700e6c65104059db8bba34439e0c32483ab7c34e3ccae52c7395495181861012b60201b60201c565b6101ca565b63ffffffff60e01b817bffffffffffffffffffffffffffffffffffffffffffffffffffffffff1916141561015e57600080fd5b6001600080837bffffffffffffffffffffffffffffffffffffffffffffffffffffffff19167bffffffffffffffffffffffffffffffffffffffffffffffffffffffff1916815260200190815260200160002060006101000a81548160ff02191690831515021790555050565b610e85806101d96000396000f3fe608060405234801561001057600080fd5b50600436106100885760003560e01c80632f745c591161005b5780632f745c59146101135780634f6ccce7146101435780636352211e1461017357806370a08231146101a357610088565b806301ffc9a71461008d578063095ea7b3146100bd57806318160ddd146100d957806323b872dd146100f7575b600080fd5b6100a760048036038101906100a291906109f6565b6101d3565b6040516100b49190610bf6565b60405180910390f35b6100d760048036038101906100d291906109ba565b61023a565b005b6100e161036a565b6040516100ee9190610cb1565b60405180910390f35b610111600480360381019061010c919061096b565b610377565b005b61012d600480360381019061012891906109ba565b610387565b60405161013a9190610cb1565b60405180910390f35b61015d60048036038101906101589190610a1f565b610427565b60405161016a9190610cb1565b60405180910390f35b61018d60048036038101906101889190610a1f565b6104be565b60405161019a9190610bdb565b60405180910390f35b6101bd60048036038101906101b89190610942565b610570565b6040516101ca9190610cb1565b60405180910390f35b6000806000837bffffffffffffffffffffffffffffffffffffffffffffffffffffffff19167bffffffffffffffffffffffffffffffffffffffffffffffffffffffff1916815260200190815260200160002060009054906101000a900460ff169050919050565b6000610245826104be565b90508073ffffffffffffffffffffffffffffffffffffffff168373ffffffffffffffffffffffffffffffffffffffff16141561028057600080fd5b8073ffffffffffffffffffffffffffffffffffffffff163373ffffffffffffffffffffffffffffffffffffffff16146102b857600080fd5b826003600084815260200190815260200160002060006101000a81548173ffffffffffffffffffffffffffffffffffffffff021916908373ffffffffffffffffffffffffffffffffffffffff160217905550818373ffffffffffffffffffffffffffffffffffffffff168273ffffffffffffffffffffffffffffffffffffffff167f8c5be1e5ebec7d5bd14f71427d1e84f3dd0314c0f7b2291e5b200ac8c7c3b92560405160405180910390a4505050565b6000600480549050905090565b61038283838361062f565b505050565b600061039283610570565b821061039d57600080fd5b600660008473ffffffffffffffffffffffffffffffffffffffff1673ffffffffffffffffffffffffffffffffffffffff1681526020019081526020016000208281548110610414577f4e487b7100000000000000000000000000000000000000000000000000000000600052603260045260246000fd5b9060005260206000200154905092915050565b600061043161036a565b8210610472576040517f08c379a000000000000000000000000000000000000000000000000000000000815260040161046990610c11565b60405180910390fd5b600482815481106104ac577f4e487b7100000000000000000000000000000000000000000000000000000000600052603260045260246000fd5b90600052602060002001549050919050565b6000806001600084815260200190815260200160002060009054906101000a900473ffffffffffffffffffffffffffffffffffffffff169050600073ffffffffffffffffffffffffffffffffffffffff168173ffffffffffffffffffffffffffffffffffffffff161415610567576040517f08c379a000000000000000000000000000000000000000000000000000000000815260040161055e90610c51565b60405180910390fd5b80915050919050565b60008073ffffffffffffffffffffffffffffffffffffffff168273ffffffffffffffffffffffffffffffffffffffff1614156105e1576040517f08c379a00000000000000000000000000000000000000000000000000000000081526004016105d890610c51565b60405180910390fd5b610628600260008473ffffffffffffffffffffffffffffffffffffffff1673ffffffffffffffffffffffffffffffffffffffff168152602001908152602001600020610855565b9050919050565b600073ffffffffffffffffffffffffffffffffffffffff168273ffffffffffffffffffffffffffffffffffffffff16141561069f576040517f08c379a000000000000000000000000000000000000000000000000000000000815260040161069690610c31565b60405180910390fd5b8273ffffffffffffffffffffffffffffffffffffffff166106bf826104be565b73ffffffffffffffffffffffffffffffffffffffff1614610715576040517f08c379a000000000000000000000000000000000000000000000000000000000815260040161070c90610c91565b60405180910390fd5b816001600083815260200190815260200160002060006101000a81548173ffffffffffffffffffffffffffffffffffffffff021916908373ffffffffffffffffffffffffffffffffffffffff1602179055506107ae600260008573ffffffffffffffffffffffffffffffffffffffff1673ffffffffffffffffffffffffffffffffffffffff168152602001908152602001600020610863565b6107f5600260008473ffffffffffffffffffffffffffffffffffffffff1673ffffffffffffffffffffffffffffffffffffffff168152602001908152602001600020610886565b808273ffffffffffffffffffffffffffffffffffffffff168473ffffffffffffffffffffffffffffffffffffffff167fddf252ad1be2c89b69c2b068fc378daa952ba7f163c4a11628f55a4df523b3ef60405160405180910390a4505050565b600081600001549050919050565b61087b600182600001546108a590919063ffffffff16565b816000018190555050565b600181600001600082825461089b9190610cdd565b9250508190555050565b60008082846108b49190610d33565b9050838311156108f9576040517f08c379a00000000000000000000000000000000000000000000000000000000081526004016108f090610c71565b60405180910390fd5b8091505092915050565b60008135905061091281610e0a565b92915050565b60008135905061092781610e21565b92915050565b60008135905061093c81610e38565b92915050565b60006020828403121561095457600080fd5b600061096284828501610903565b91505092915050565b60008060006060848603121561098057600080fd5b600061098e86828701610903565b935050602061099f86828701610903565b92505060406109b08682870161092d565b9150509250925092565b600080604083850312156109cd57600080fd5b60006109db85828601610903565b92505060206109ec8582860161092d565b9150509250929050565b600060208284031215610a0857600080fd5b6000610a1684828501610918565b91505092915050565b600060208284031215610a3157600080fd5b6000610a3f8482850161092d565b91505092915050565b610a5181610d67565b82525050565b610a6081610d79565b82525050565b6000610a73601683610ccc565b91507f696e646578206973206f7574206f6620626f756e6473000000000000000000006000830152602082019050919050565b6000610ab3602c83610ccc565b91507f4572726f72202d20455243373231207472616e7366657220746f20746865207a60008301527f65726f20616464726573732e00000000000000000000000000000000000000006020830152604082019050919050565b6000610b19601f83610ccc565b91507f45524337323120757365732061206e6f6e2d7a65726f20616464726573732e006000830152602082019050919050565b6000610b59601e83610ccc565b91507f536166654d6174683a205375627472616374696f6e204f766572666c6f7700006000830152602082019050919050565b6000610b99601683610ccc565b91507f596f7520646f6e74206f776e2069742064756d6d792e000000000000000000006000830152602082019050919050565b610bd581610dd1565b82525050565b6000602082019050610bf06000830184610a48565b92915050565b6000602082019050610c0b6000830184610a57565b92915050565b60006020820190508181036000830152610c2a81610a66565b9050919050565b60006020820190508181036000830152610c4a81610aa6565b9050919050565b60006020820190508181036000830152610c6a81610b0c565b9050919050565b60006020820190508181036000830152610c8a81610b4c565b9050919050565b60006020820190508181036000830152610caa81610b8c565b9050919050565b6000602082019050610cc66000830184610bcc565b92915050565b600082825260208201905092915050565b6000610ce882610dd1565b9150610cf383610dd1565b9250827fffffffffffffffffffffffffffffffffffffffffffffffffffffffffffffffff03821115610d2857610d27610ddb565b5b828201905092915050565b6000610d3e82610dd1565b9150610d4983610dd1565b925082821015610d5c57610d5b610ddb565b5b828203905092915050565b6000610d7282610db1565b9050919050565b60008115159050919050565b60007fffffffff0000000000000000000000000000000000000000000000000000000082169050919050565b600073ffffffffffffffffffffffffffffffffffffffff82169050919050565b6000819050919050565b7f4e487b7100000000000000000000000000000000000000000000000000000000600052601160045260246000fd5b610e1381610d67565b8114610e1e57600080fd5b50565b610e2a81610d85565b8114610e3557600080fd5b50565b610e4181610dd1565b8114610e4c57600080fd5b5056fea26469706673582212206be35dd8703aceca82dc7d680f7ac438c46452618dc6ea23195cd5e92ca0bd3364736f6c63430008000033",
  "immutableReferences": {},
  "source": "// SPDX-License-Identifier: MIT\npragma solidity ^0.8.0;\n\nimport './ERC721.sol';\nimport './interfaces/IERC721Enum.sol';\n\n\ncontract ERC721Enumerable is ERC721, IERC721Enum {\n\n  uint256[] private _allTokens;\n\n  //mapping from tokenId to position in _allTokens array\n  mapping(uint256 => uint256) private _allTokensIndex;\n\n  //mapping of owner to list of all owner token ids\n  mapping(address => uint256[]) private _ownedTokens;\n\n  //mapping from token ID index of the owner tokens list\n  mapping(uint256 => uint256) private _ownedTokensIndex;\n\n  constructor () {\n    _registerInterface(bytes4(keccak256('totalSupply(bytes4)')\n    ^keccak256('tokenByIndex(bytes4)')\n    ^keccak256('tokenOfOwnerByIndex(bytes4)')\n  ));\n\n  }\n\n\n//function tokenByIndex(uint256 _index) external view returns (uint256);\n\n//function tokenOfOwnerByIndex(address _owner, uint256 _index) external view returns (uint256);\n\nfunction _mint(address to, uint256 tokenId) internal override(ERC721) {\n  super._mint(to, tokenId);\n  addTokensToAllEnumeration(tokenId);\n  addTokensToOwnerEnumeration(to, tokenId);\n}\n\n//add the tokens to the array, and also set the position of the index.\nfunction addTokensToAllEnumeration(uint256 tokenId) private {\n  //tokenId added to _allTokensIndex\n  _allTokensIndex[tokenId] = _allTokens.length;\n  _allTokens.push(tokenId);\n}\n\n//Most of all functions are being passed the tokenId.\nfunction addTokensToOwnerEnumeration(address owner, uint256 tokenId) private {\n  //add address and tokenId to the _ownedTokens.\n  //ownedTokensIndex tokenId set to address of ownedTokens position\n  //Execute function with minting.\n\n  _ownedTokens[owner].push(tokenId);\n  _ownedTokensIndex[tokenId] = _ownedTokens[owner].length;\n}\n\n//returns tokenByIndex and tokenOfOwnerByIndex\nfunction tokenByIndex(uint256 index) public view override returns(uint256) {\n  //we want the index, and push through the index to allTokens\n  //make sure the index is not of bounds of totalSupply\n  require(index < totalSupply(), \"index is out of bounds\");\n  return _allTokens[index];\n}\n\nfunction tokenOfOwnerByIndex(address owner, uint256 index) public view override returns(uint256) {\n  //make sure the index of the owner isn't out of bounds.\n  require(index < balanceOf(owner));\n  return _ownedTokens[owner][index];\n}\n\nfunction totalSupply() public view override returns(uint256) {\n  return _allTokens.length;\n}\n\n}\n",
  "sourcePath": "/Users/chypchrome/Desktop/NFT-Marketplace/nft-marketplace-starter-kit/contracts/ERC721Enumerable.sol",
  "compiler": {
    "name": "solc",
    "version": "0.8.0+commit.c7dfd78e.Emscripten.clang"
  },
  "schemaVersion": "3.4.4",
  "updatedAt": "2022-01-28T18:01:39.501Z",
  "devdoc": {
    "kind": "dev",
    "methods": {
      "balanceOf(address)": {
        "details": "NFTs assigned to the zero address are considered invalid, and this  function throws for queries about the zero address.",
        "params": {
          "_owner": "An address for whom to query the balance"
        },
        "returns": {
          "_0": "The number of NFTs owned by `_owner`, possibly zero"
        }
      },
      "ownerOf(uint256)": {
        "details": "NFTs assigned to zero address are considered invalid, and queries  about them do throw.",
        "params": {
          "_tokenId": "The identifier for an NFT"
        },
        "returns": {
          "_0": "The address of the owner of the NFT"
        }
      },
      "totalSupply()": {
        "returns": {
          "_0": "A count of valid NFTs tracked by this contract, where each one of  them has an assigned and queryable owner not equal to the zero address"
        }
      },
      "transferFrom(address,address,uint256)": {
        "details": "Throws unless `msg.sender` is the current owner, an authorized  operator, or the approved address for this NFT. Throws if `_from` is  not the current owner. Throws if `_to` is the zero address. Throws if  `_tokenId` is not a valid NFT.",
        "params": {
          "_from": "The current owner of the NFT",
          "_to": "The new owner",
          "_tokenId": "The NFT to transfer"
        }
      }
    },
    "version": 1
  },
  "userdoc": {
    "kind": "user",
    "methods": {
      "balanceOf(address)": {
        "notice": "Count all NFTs assigned to an owner"
      },
      "ownerOf(uint256)": {
        "notice": "Find the owner of an NFT"
      },
      "totalSupply()": {
        "notice": "Count NFTs tracked by this contract"
      },
      "transferFrom(address,address,uint256)": {
        "notice": "Transfer ownership of an NFT -- THE CALLER IS RESPONSIBLE  TO CONFIRM THAT `_to` IS CAPABLE OF RECEIVING NFTS OR ELSE  THEY MAY BE PERMANENTLY LOST"
      }
    },
    "version": 1
  }
}