{
  "contractName": "ERC721Connector",
  "abi": [
    {
      "inputs": [
        {
          "internalType": "string",
          "name": "name",
          "type": "string"
        },
        {
          "internalType": "string",
          "name": "symbol",
          "type": "string"
        }
      ],
      "stateMutability": "nonpayable",
      "type": "constructor"
    },
    {
      "anonymous": false,
      "inputs": [
        {
          "indexed": true,
          "internalType": "address",
          "name": "_owner",
          "type": "address"
        },
        {
          "indexed": true,
          "internalType": "address",
          "name": "_approved",
          "type": "address"
        },
        {
          "indexed": true,
          "internalType": "uint256",
          "name": "_tokenId",
          "type": "uint256"
        }
      ],
      "name": "Approval",
      "type": "event"
    },
    {
      "anonymous": false,
      "inputs": [
        {
          "indexed": true,
          "internalType": "address",
          "name": "_from",
          "type": "address"
        },
        {
          "indexed": true,
          "internalType": "address",
          "name": "_to",
          "type": "address"
        },
        {
          "indexed": true,
          "internalType": "uint256",
          "name": "_tokenId",
          "type": "uint256"
        }
      ],
      "name": "Transfer",
      "type": "event"
    },
    {
      "inputs": [
        {
          "internalType": "address",
          "name": "_to",
          "type": "address"
        },
        {
          "internalType": "uint256",
          "name": "_tokenId",
          "type": "uint256"
        }
      ],
      "name": "approve",
      "outputs": [],
      "stateMutability": "nonpayable",
      "type": "function"
    },
    {
      "inputs": [
        {
          "internalType": "address",
          "name": "_owner",
          "type": "address"
        }
      ],
      "name": "balanceOf",
      "outputs": [
        {
          "internalType": "uint256",
          "name": "",
          "type": "uint256"
        }
      ],
      "stateMutability": "view",
      "type": "function"
    },
    {
      "inputs": [],
      "name": "name",
      "outputs": [
        {
          "internalType": "string",
          "name": "",
          "type": "string"
        }
      ],
      "stateMutability": "view",
      "type": "function"
    },
    {
      "inputs": [
        {
          "internalType": "uint256",
          "name": "_tokenId",
          "type": "uint256"
        }
      ],
      "name": "ownerOf",
      "outputs": [
        {
          "internalType": "address",
          "name": "",
          "type": "address"
        }
      ],
      "stateMutability": "view",
      "type": "function"
    },
    {
      "inputs": [
        {
          "internalType": "bytes4",
          "name": "interfaceId",
          "type": "bytes4"
        }
      ],
      "name": "supportsInterface",
      "outputs": [
        {
          "internalType": "bool",
          "name": "",
          "type": "bool"
        }
      ],
      "stateMutability": "view",
      "type": "function"
    },
    {
      "inputs": [],
      "name": "symbol",
      "outputs": [
        {
          "internalType": "string",
          "name": "",
          "type": "string"
        }
      ],
      "stateMutability": "view",
      "type": "function"
    },
    {
      "inputs": [
        {
          "internalType": "uint256",
          "name": "index",
          "type": "uint256"
        }
      ],
      "name": "tokenByIndex",
      "outputs": [
        {
          "internalType": "uint256",
          "name": "",
          "type": "uint256"
        }
      ],
      "stateMutability": "view",
      "type": "function"
    },
    {
      "inputs": [
        {
          "internalType": "address",
          "name": "owner",
          "type": "address"
        },
        {
          "internalType": "uint256",
          "name": "index",
          "type": "uint256"
        }
      ],
      "name": "tokenOfOwnerByIndex",
      "outputs": [
        {
          "internalType": "uint256",
          "name": "",
          "type": "uint256"
        }
      ],
      "stateMutability": "view",
      "type": "function"
    },
    {
      "inputs": [],
      "name": "totalSupply",
      "outputs": [
        {
          "internalType": "uint256",
          "name": "",
          "type": "uint256"
        }
      ],
      "stateMutability": "view",
      "type": "function"
    },
    {
      "inputs": [
        {
          "internalType": "address",
          "name": "_from",
          "type": "address"
        },
        {
          "internalType": "address",
          "name": "_to",
          "type": "address"
        },
        {
          "internalType": "uint256",
          "name": "_tokenId",
          "type": "uint256"
        }
      ],
      "name": "transferFrom",
      "outputs": [],
      "stateMutability": "nonpayable",
      "type": "function"
    }
  ],
  "bytecode": "0x60806040523480156200001157600080fd5b506040516200165f3803806200165f8339818101604052810190620000379190620003a5565b81816200006a7f01ffc9a7a5cef8baa21ed3c5c0d7e23accb804b619e9333b597f47a0d84076e2620001e360201b60201c565b81600190805190602001906200008292919062000283565b5080600290805190602001906200009b92919062000283565b50620000ef7f13b182f4c0e5b2efbac0efe6cf6d756c8b89f4b79c5707a043ed9ea740574ee97f7feaf19471f34a12a7eaf32d5f3090aa2260ea8624dc8a138e74e0bf0f62307618620001e360201b60201c565b5050620001667f22c82707ba960a14c7592ffb6b8cfaa073fed0048a84cc7fa41f6b5bd8e7f2e47f3a6eb71757dfc6e784c1459d26270140c2c147d95ca985c80026fc5301c3eca17f8a7e378434598edc36d108689a030cbc9d7d465de4f74c71bae1028eed6a881b1818620001e360201b60201c565b620001db7f8230223f691b981717299fae9549350a0d894555723531f02108b1f522c1a7977f6da5e1284143cdd2d15038a59bde3be031250f00291d64494c12d967b3a4e0c37fc53637662700e6c65104059db8bba34439e0c32483ab7c34e3ccae52c73954951818620001e360201b60201c565b505062000549565b63ffffffff60e01b817bffffffffffffffffffffffffffffffffffffffffffffffffffffffff191614156200021757600080fd5b6001600080837bffffffffffffffffffffffffffffffffffffffffffffffffffffffff19167bffffffffffffffffffffffffffffffffffffffffffffffffffffffff1916815260200190815260200160002060006101000a81548160ff02191690831515021790555050565b8280546200029190620004b5565b90600052602060002090601f016020900481019282620002b5576000855562000301565b82601f10620002d057805160ff191683800117855562000301565b8280016001018555821562000301579182015b8281111562000300578251825591602001919060010190620002e3565b5b50905062000310919062000314565b5090565b5b808211156200032f57600081600090555060010162000315565b5090565b60006200034a62000344846200044c565b62000418565b9050828152602081018484840111156200036357600080fd5b620003708482856200047f565b509392505050565b600082601f8301126200038a57600080fd5b81516200039c84826020860162000333565b91505092915050565b60008060408385031215620003b957600080fd5b600083015167ffffffffffffffff811115620003d457600080fd5b620003e28582860162000378565b925050602083015167ffffffffffffffff8111156200040057600080fd5b6200040e8582860162000378565b9150509250929050565b6000604051905081810181811067ffffffffffffffff821117156200044257620004416200051a565b5b8060405250919050565b600067ffffffffffffffff8211156200046a57620004696200051a565b5b601f19601f8301169050602081019050919050565b60005b838110156200049f57808201518184015260208101905062000482565b83811115620004af576000848401525b50505050565b60006002820490506001821680620004ce57607f821691505b60208210811415620004e557620004e4620004eb565b5b50919050565b7f4e487b7100000000000000000000000000000000000000000000000000000000600052602260045260246000fd5b7f4e487b7100000000000000000000000000000000000000000000000000000000600052604160045260246000fd5b61110680620005596000396000f3fe608060405234801561001057600080fd5b506004361061009e5760003560e01c80632f745c59116100665780632f745c59146101475780634f6ccce7146101775780636352211e146101a757806370a08231146101d757806395d89b41146102075761009e565b806301ffc9a7146100a357806306fdde03146100d3578063095ea7b3146100f157806318160ddd1461010d57806323b872dd1461012b575b600080fd5b6100bd60048036038101906100b89190610b6c565b610225565b6040516100ca9190610da5565b60405180910390f35b6100db61028c565b6040516100e89190610dc0565b60405180910390f35b61010b60048036038101906101069190610b30565b61031e565b005b61011561044e565b6040516101229190610e82565b60405180910390f35b61014560048036038101906101409190610ae1565b61045b565b005b610161600480360381019061015c9190610b30565b61046b565b60405161016e9190610e82565b60405180910390f35b610191600480360381019061018c9190610b95565b61050b565b60405161019e9190610e82565b60405180910390f35b6101c160048036038101906101bc9190610b95565b6105a2565b6040516101ce9190610d8a565b60405180910390f35b6101f160048036038101906101ec9190610ab8565b610654565b6040516101fe9190610e82565b60405180910390f35b61020f610713565b60405161021c9190610dc0565b60405180910390f35b6000806000837bffffffffffffffffffffffffffffffffffffffffffffffffffffffff19167bffffffffffffffffffffffffffffffffffffffffffffffffffffffff1916815260200190815260200160002060009054906101000a900460ff169050919050565b60606001805461029b90610fea565b80601f01602080910402602001604051908101604052809291908181526020018280546102c790610fea565b80156103145780601f106102e957610100808354040283529160200191610314565b820191906000526020600020905b8154815290600101906020018083116102f757829003601f168201915b5050505050905090565b6000610329826105a2565b90508073ffffffffffffffffffffffffffffffffffffffff168373ffffffffffffffffffffffffffffffffffffffff16141561036457600080fd5b8073ffffffffffffffffffffffffffffffffffffffff163373ffffffffffffffffffffffffffffffffffffffff161461039c57600080fd5b826005600084815260200190815260200160002060006101000a81548173ffffffffffffffffffffffffffffffffffffffff021916908373ffffffffffffffffffffffffffffffffffffffff160217905550818373ffffffffffffffffffffffffffffffffffffffff168273ffffffffffffffffffffffffffffffffffffffff167f8c5be1e5ebec7d5bd14f71427d1e84f3dd0314c0f7b2291e5b200ac8c7c3b92560405160405180910390a4505050565b6000600680549050905090565b6104668383836107a5565b505050565b600061047683610654565b821061048157600080fd5b600860008473ffffffffffffffffffffffffffffffffffffffff1673ffffffffffffffffffffffffffffffffffffffff16815260200190815260200160002082815481106104f8577f4e487b7100000000000000000000000000000000000000000000000000000000600052603260045260246000fd5b9060005260206000200154905092915050565b600061051561044e565b8210610556576040517f08c379a000000000000000000000000000000000000000000000000000000000815260040161054d90610de2565b60405180910390fd5b60068281548110610590577f4e487b7100000000000000000000000000000000000000000000000000000000600052603260045260246000fd5b90600052602060002001549050919050565b6000806003600084815260200190815260200160002060009054906101000a900473ffffffffffffffffffffffffffffffffffffffff169050600073ffffffffffffffffffffffffffffffffffffffff168173ffffffffffffffffffffffffffffffffffffffff16141561064b576040517f08c379a000000000000000000000000000000000000000000000000000000000815260040161064290610e22565b60405180910390fd5b80915050919050565b60008073ffffffffffffffffffffffffffffffffffffffff168273ffffffffffffffffffffffffffffffffffffffff1614156106c5576040517f08c379a00000000000000000000000000000000000000000000000000000000081526004016106bc90610e22565b60405180910390fd5b61070c600460008473ffffffffffffffffffffffffffffffffffffffff1673ffffffffffffffffffffffffffffffffffffffff1681526020019081526020016000206109cb565b9050919050565b60606002805461072290610fea565b80601f016020809104026020016040519081016040528092919081815260200182805461074e90610fea565b801561079b5780601f106107705761010080835404028352916020019161079b565b820191906000526020600020905b81548152906001019060200180831161077e57829003601f168201915b5050505050905090565b600073ffffffffffffffffffffffffffffffffffffffff168273ffffffffffffffffffffffffffffffffffffffff161415610815576040517f08c379a000000000000000000000000000000000000000000000000000000000815260040161080c90610e02565b60405180910390fd5b8273ffffffffffffffffffffffffffffffffffffffff16610835826105a2565b73ffffffffffffffffffffffffffffffffffffffff161461088b576040517f08c379a000000000000000000000000000000000000000000000000000000000815260040161088290610e62565b60405180910390fd5b816003600083815260200190815260200160002060006101000a81548173ffffffffffffffffffffffffffffffffffffffff021916908373ffffffffffffffffffffffffffffffffffffffff160217905550610924600460008573ffffffffffffffffffffffffffffffffffffffff1673ffffffffffffffffffffffffffffffffffffffff1681526020019081526020016000206109d9565b61096b600460008473ffffffffffffffffffffffffffffffffffffffff1673ffffffffffffffffffffffffffffffffffffffff1681526020019081526020016000206109fc565b808273ffffffffffffffffffffffffffffffffffffffff168473ffffffffffffffffffffffffffffffffffffffff167fddf252ad1be2c89b69c2b068fc378daa952ba7f163c4a11628f55a4df523b3ef60405160405180910390a4505050565b600081600001549050919050565b6109f160018260000154610a1b90919063ffffffff16565b816000018190555050565b6001816000016000828254610a119190610eb9565b9250508190555050565b6000808284610a2a9190610f0f565b905083831115610a6f576040517f08c379a0000000000000000000000000000000000000000000000000000000008152600401610a6690610e42565b60405180910390fd5b8091505092915050565b600081359050610a888161108b565b92915050565b600081359050610a9d816110a2565b92915050565b600081359050610ab2816110b9565b92915050565b600060208284031215610aca57600080fd5b6000610ad884828501610a79565b91505092915050565b600080600060608486031215610af657600080fd5b6000610b0486828701610a79565b9350506020610b1586828701610a79565b9250506040610b2686828701610aa3565b9150509250925092565b60008060408385031215610b4357600080fd5b6000610b5185828601610a79565b9250506020610b6285828601610aa3565b9150509250929050565b600060208284031215610b7e57600080fd5b6000610b8c84828501610a8e565b91505092915050565b600060208284031215610ba757600080fd5b6000610bb584828501610aa3565b91505092915050565b610bc781610f43565b82525050565b610bd681610f55565b82525050565b6000610be782610e9d565b610bf18185610ea8565b9350610c01818560208601610fb7565b610c0a8161107a565b840191505092915050565b6000610c22601683610ea8565b91507f696e646578206973206f7574206f6620626f756e6473000000000000000000006000830152602082019050919050565b6000610c62602c83610ea8565b91507f4572726f72202d20455243373231207472616e7366657220746f20746865207a60008301527f65726f20616464726573732e00000000000000000000000000000000000000006020830152604082019050919050565b6000610cc8601f83610ea8565b91507f45524337323120757365732061206e6f6e2d7a65726f20616464726573732e006000830152602082019050919050565b6000610d08601e83610ea8565b91507f536166654d6174683a205375627472616374696f6e204f766572666c6f7700006000830152602082019050919050565b6000610d48601683610ea8565b91507f596f7520646f6e74206f776e2069742064756d6d792e000000000000000000006000830152602082019050919050565b610d8481610fad565b82525050565b6000602082019050610d9f6000830184610bbe565b92915050565b6000602082019050610dba6000830184610bcd565b92915050565b60006020820190508181036000830152610dda8184610bdc565b905092915050565b60006020820190508181036000830152610dfb81610c15565b9050919050565b60006020820190508181036000830152610e1b81610c55565b9050919050565b60006020820190508181036000830152610e3b81610cbb565b9050919050565b60006020820190508181036000830152610e5b81610cfb565b9050919050565b60006020820190508181036000830152610e7b81610d3b565b9050919050565b6000602082019050610e976000830184610d7b565b92915050565b600081519050919050565b600082825260208201905092915050565b6000610ec482610fad565b9150610ecf83610fad565b9250827fffffffffffffffffffffffffffffffffffffffffffffffffffffffffffffffff03821115610f0457610f0361101c565b5b828201905092915050565b6000610f1a82610fad565b9150610f2583610fad565b925082821015610f3857610f3761101c565b5b828203905092915050565b6000610f4e82610f8d565b9050919050565b60008115159050919050565b60007fffffffff0000000000000000000000000000000000000000000000000000000082169050919050565b600073ffffffffffffffffffffffffffffffffffffffff82169050919050565b6000819050919050565b60005b83811015610fd5578082015181840152602081019050610fba565b83811115610fe4576000848401525b50505050565b6000600282049050600182168061100257607f821691505b602082108114156110165761101561104b565b5b50919050565b7f4e487b7100000000000000000000000000000000000000000000000000000000600052601160045260246000fd5b7f4e487b7100000000000000000000000000000000000000000000000000000000600052602260045260246000fd5b6000601f19601f8301169050919050565b61109481610f43565b811461109f57600080fd5b50565b6110ab81610f61565b81146110b657600080fd5b50565b6110c281610fad565b81146110cd57600080fd5b5056fea2646970667358221220661f6cde095687cfc943c4930cccded611f74e06f99b9953a4b249cbe40c3dbc64736f6c63430008000033",
  "immutableReferences": {},
  "source": "// SPDX-License-Identifier: MIT\npragma solidity ^0.8.0;\n\nimport './ERC721Metadata.sol';\nimport './ERC721Enumerable.sol';\n\n\n\ncontract ERC721Connector is ERC721Metadata, ERC721Enumerable {\n\n  //Whenever we deploy connector right away.\n  //Carry metadata over.\n\n  constructor(string memory name, string memory symbol) ERC721Metadata(name, symbol) {\n  }\n\n}\n",
  "sourcePath": "/Users/chypchrome/Desktop/NFT-Marketplace/nft-marketplace-starter-kit/contracts/ERC721Connector.sol",
  "compiler": {
    "name": "solc",
    "version": "0.8.0+commit.c7dfd78e.Emscripten.clang"
  },
  "schemaVersion": "3.4.4",
  "updatedAt": "2022-01-28T18:01:39.498Z",
  "devdoc": {
    "kind": "dev",
    "methods": {
      "balanceOf(address)": {
        "details": "NFTs assigned to the zero address are considered invalid, and this  function throws for queries about the zero address.",
        "params": {
          "_owner": "An address for whom to query the balance"
        },
        "returns": {
          "_0": "The number of NFTs owned by `_owner`, possibly zero"
        }
      },
      "ownerOf(uint256)": {
        "details": "NFTs assigned to zero address are considered invalid, and queries  about them do throw.",
        "params": {
          "_tokenId": "The identifier for an NFT"
        },
        "returns": {
          "_0": "The address of the owner of the NFT"
        }
      },
      "totalSupply()": {
        "returns": {
          "_0": "A count of valid NFTs tracked by this contract, where each one of  them has an assigned and queryable owner not equal to the zero address"
        }
      },
      "transferFrom(address,address,uint256)": {
        "details": "Throws unless `msg.sender` is the current owner, an authorized  operator, or the approved address for this NFT. Throws if `_from` is  not the current owner. Throws if `_to` is the zero address. Throws if  `_tokenId` is not a valid NFT.",
        "params": {
          "_from": "The current owner of the NFT",
          "_to": "The new owner",
          "_tokenId": "The NFT to transfer"
        }
      }
    },
    "version": 1
  },
  "userdoc": {
    "kind": "user",
    "methods": {
      "balanceOf(address)": {
        "notice": "Count all NFTs assigned to an owner"
      },
      "name()": {
        "notice": "A descriptive name for a collection of NFTs in this contract"
      },
      "ownerOf(uint256)": {
        "notice": "Find the owner of an NFT"
      },
      "symbol()": {
        "notice": "An abbreviated name for NFTs in this contract"
      },
      "totalSupply()": {
        "notice": "Count NFTs tracked by this contract"
      },
      "transferFrom(address,address,uint256)": {
        "notice": "Transfer ownership of an NFT -- THE CALLER IS RESPONSIBLE  TO CONFIRM THAT `_to` IS CAPABLE OF RECEIVING NFTS OR ELSE  THEY MAY BE PERMANENTLY LOST"
      }
    },
    "version": 1
  }
}