{
  "contractName": "ERC721Enumerable",
  "abi": [
    {
      "inputs": [],
      "stateMutability": "nonpayable",
      "type": "constructor"
    },
    {
      "anonymous": false,
      "inputs": [
        {
          "indexed": true,
          "internalType": "address",
          "name": "_owner",
          "type": "address"
        },
        {
          "indexed": true,
          "internalType": "address",
          "name": "_approved",
          "type": "address"
        },
        {
          "indexed": true,
          "internalType": "uint256",
          "name": "_tokenId",
          "type": "uint256"
        }
      ],
      "name": "Approval",
      "type": "event"
    },
    {
      "anonymous": false,
      "inputs": [
        {
          "indexed": true,
          "internalType": "address",
          "name": "_from",
          "type": "address"
        },
        {
          "indexed": true,
          "internalType": "address",
          "name": "_to",
          "type": "address"
        },
        {
          "indexed": true,
          "internalType": "uint256",
          "name": "_tokenId",
          "type": "uint256"
        }
      ],
      "name": "Transfer",
      "type": "event"
    },
    {
      "inputs": [
        {
          "internalType": "address",
          "name": "_to",
          "type": "address"
        },
        {
          "internalType": "uint256",
          "name": "_tokenId",
          "type": "uint256"
        }
      ],
      "name": "approve",
      "outputs": [],
      "stateMutability": "nonpayable",
      "type": "function"
    },
    {
      "inputs": [
        {
          "internalType": "address",
          "name": "_owner",
          "type": "address"
        }
      ],
      "name": "balanceOf",
      "outputs": [
        {
          "internalType": "uint256",
          "name": "",
          "type": "uint256"
        }
      ],
      "stateMutability": "view",
      "type": "function"
    },
    {
      "inputs": [
        {
          "internalType": "uint256",
          "name": "_tokenId",
          "type": "uint256"
        }
      ],
      "name": "ownerOf",
      "outputs": [
        {
          "internalType": "address",
          "name": "",
          "type": "address"
        }
      ],
      "stateMutability": "view",
      "type": "function"
    },
    {
      "inputs": [
        {
          "internalType": "bytes4",
          "name": "interfaceId",
          "type": "bytes4"
        }
      ],
      "name": "supportsInterface",
      "outputs": [
        {
          "internalType": "bool",
          "name": "",
          "type": "bool"
        }
      ],
      "stateMutability": "view",
      "type": "function"
    },
    {
      "inputs": [
        {
          "internalType": "address",
          "name": "_from",
          "type": "address"
        },
        {
          "internalType": "address",
          "name": "_to",
          "type": "address"
        },
        {
          "internalType": "uint256",
          "name": "_tokenId",
          "type": "uint256"
        }
      ],
      "name": "transferFrom",
      "outputs": [],
      "stateMutability": "nonpayable",
      "type": "function"
    },
    {
      "inputs": [
        {
          "internalType": "uint256",
          "name": "index",
          "type": "uint256"
        }
      ],
      "name": "tokenByIndex",
      "outputs": [
        {
          "internalType": "uint256",
          "name": "",
          "type": "uint256"
        }
      ],
      "stateMutability": "view",
      "type": "function"
    },
    {
      "inputs": [
        {
          "internalType": "address",
          "name": "owner",
          "type": "address"
        },
        {
          "internalType": "uint256",
          "name": "index",
          "type": "uint256"
        }
      ],
      "name": "tokenOfOwnerByIndex",
      "outputs": [
        {
          "internalType": "uint256",
          "name": "",
          "type": "uint256"
        }
      ],
      "stateMutability": "view",
      "type": "function"
    },
    {
      "inputs": [],
      "name": "totalSupply",
      "outputs": [
        {
          "internalType": "uint256",
          "name": "",
          "type": "uint256"
        }
      ],
      "stateMutability": "view",
      "type": "function"
    }
  ],
  "bytecode": "0x608060405234801561001057600080fd5b506100407f01ffc9a7a5cef8baa21ed3c5c0d7e23accb804b619e9333b597f47a0d84076e261012b60201b60201c565b6100b37f22c82707ba960a14c7592ffb6b8cfaa073fed0048a84cc7fa41f6b5bd8e7f2e47f3a6eb71757dfc6e784c1459d26270140c2c147d95ca985c80026fc5301c3eca17f8a7e378434598edc36d108689a030cbc9d7d465de4f74c71bae1028eed6a881b181861012b60201b60201c565b6101267f8230223f691b981717299fae9549350a0d894555723531f02108b1f522c1a7977f6da5e1284143cdd2d15038a59bde3be031250f00291d64494c12d967b3a4e0c37fc53637662700e6c65104059db8bba34439e0c32483ab7c34e3ccae52c7395495181861012b60201b60201c565b6101ca565b63ffffffff60e01b817bffffffffffffffffffffffffffffffffffffffffffffffffffffffff1916141561015e57600080fd5b6001600080837bffffffffffffffffffffffffffffffffffffffffffffffffffffffff19167bffffffffffffffffffffffffffffffffffffffffffffffffffffffff1916815260200190815260200160002060006101000a81548160ff02191690831515021790555050565b610d90806101d96000396000f3fe608060405234801561001057600080fd5b50600436106100885760003560e01c80632f745c591161005b5780632f745c59146101135780634f6ccce7146101435780636352211e1461017357806370a08231146101a357610088565b806301ffc9a71461008d578063095ea7b3146100bd57806318160ddd146100d957806323b872dd146100f7575b600080fd5b6100a760048036038101906100a29190610961565b6101d3565b6040516100b49190610b21565b60405180910390f35b6100d760048036038101906100d29190610925565b61023a565b005b6100e161036a565b6040516100ee9190610bbc565b60405180910390f35b610111600480360381019061010c91906108d6565b610377565b005b61012d60048036038101906101289190610925565b610387565b60405161013a9190610bbc565b60405180910390f35b61015d6004803603810190610158919061098a565b610427565b60405161016a9190610bbc565b60405180910390f35b61018d6004803603810190610188919061098a565b6104be565b60405161019a9190610b06565b60405180910390f35b6101bd60048036038101906101b891906108ad565b610570565b6040516101ca9190610bbc565b60405180910390f35b6000806000837bffffffffffffffffffffffffffffffffffffffffffffffffffffffff19167bffffffffffffffffffffffffffffffffffffffffffffffffffffffff1916815260200190815260200160002060009054906101000a900460ff169050919050565b6000610245826104be565b90508073ffffffffffffffffffffffffffffffffffffffff168373ffffffffffffffffffffffffffffffffffffffff16141561028057600080fd5b8073ffffffffffffffffffffffffffffffffffffffff163373ffffffffffffffffffffffffffffffffffffffff16146102b857600080fd5b826003600084815260200190815260200160002060006101000a81548173ffffffffffffffffffffffffffffffffffffffff021916908373ffffffffffffffffffffffffffffffffffffffff160217905550818373ffffffffffffffffffffffffffffffffffffffff168273ffffffffffffffffffffffffffffffffffffffff167f8c5be1e5ebec7d5bd14f71427d1e84f3dd0314c0f7b2291e5b200ac8c7c3b92560405160405180910390a4505050565b6000600480549050905090565b610382838383610628565b505050565b600061039283610570565b821061039d57600080fd5b600660008473ffffffffffffffffffffffffffffffffffffffff1673ffffffffffffffffffffffffffffffffffffffff1681526020019081526020016000208281548110610414577f4e487b7100000000000000000000000000000000000000000000000000000000600052603260045260246000fd5b9060005260206000200154905092915050565b600061043161036a565b8210610472576040517f08c379a000000000000000000000000000000000000000000000000000000000815260040161046990610b3c565b60405180910390fd5b600482815481106104ac577f4e487b7100000000000000000000000000000000000000000000000000000000600052603260045260246000fd5b90600052602060002001549050919050565b6000806001600084815260200190815260200160002060009054906101000a900473ffffffffffffffffffffffffffffffffffffffff169050600073ffffffffffffffffffffffffffffffffffffffff168173ffffffffffffffffffffffffffffffffffffffff161415610567576040517f08c379a000000000000000000000000000000000000000000000000000000000815260040161055e90610b7c565b60405180910390fd5b80915050919050565b60008073ffffffffffffffffffffffffffffffffffffffff168273ffffffffffffffffffffffffffffffffffffffff1614156105e1576040517f08c379a00000000000000000000000000000000000000000000000000000000081526004016105d890610b7c565b60405180910390fd5b600260008373ffffffffffffffffffffffffffffffffffffffff1673ffffffffffffffffffffffffffffffffffffffff168152602001908152602001600020549050919050565b600073ffffffffffffffffffffffffffffffffffffffff168273ffffffffffffffffffffffffffffffffffffffff161415610698576040517f08c379a000000000000000000000000000000000000000000000000000000000815260040161068f90610b5c565b60405180910390fd5b8273ffffffffffffffffffffffffffffffffffffffff166106b8826104be565b73ffffffffffffffffffffffffffffffffffffffff161461070e576040517f08c379a000000000000000000000000000000000000000000000000000000000815260040161070590610b9c565b60405180910390fd5b816001600083815260200190815260200160002060006101000a81548173ffffffffffffffffffffffffffffffffffffffff021916908373ffffffffffffffffffffffffffffffffffffffff1602179055506001600260008573ffffffffffffffffffffffffffffffffffffffff1673ffffffffffffffffffffffffffffffffffffffff16815260200190815260200160002060008282546107b09190610c3e565b925050819055506001600260008473ffffffffffffffffffffffffffffffffffffffff1673ffffffffffffffffffffffffffffffffffffffff16815260200190815260200160002060008282546108079190610be8565b92505081905550808273ffffffffffffffffffffffffffffffffffffffff168473ffffffffffffffffffffffffffffffffffffffff167fddf252ad1be2c89b69c2b068fc378daa952ba7f163c4a11628f55a4df523b3ef60405160405180910390a4505050565b60008135905061087d81610d15565b92915050565b60008135905061089281610d2c565b92915050565b6000813590506108a781610d43565b92915050565b6000602082840312156108bf57600080fd5b60006108cd8482850161086e565b91505092915050565b6000806000606084860312156108eb57600080fd5b60006108f98682870161086e565b935050602061090a8682870161086e565b925050604061091b86828701610898565b9150509250925092565b6000806040838503121561093857600080fd5b60006109468582860161086e565b925050602061095785828601610898565b9150509250929050565b60006020828403121561097357600080fd5b600061098184828501610883565b91505092915050565b60006020828403121561099c57600080fd5b60006109aa84828501610898565b91505092915050565b6109bc81610c72565b82525050565b6109cb81610c84565b82525050565b60006109de601683610bd7565b91507f696e646578206973206f7574206f6620626f756e6473000000000000000000006000830152602082019050919050565b6000610a1e602c83610bd7565b91507f4572726f72202d20455243373231207472616e7366657220746f20746865207a60008301527f65726f20616464726573732e00000000000000000000000000000000000000006020830152604082019050919050565b6000610a84601f83610bd7565b91507f45524337323120757365732061206e6f6e2d7a65726f20616464726573732e006000830152602082019050919050565b6000610ac4601683610bd7565b91507f596f7520646f6e74206f776e2069742064756d6d792e000000000000000000006000830152602082019050919050565b610b0081610cdc565b82525050565b6000602082019050610b1b60008301846109b3565b92915050565b6000602082019050610b3660008301846109c2565b92915050565b60006020820190508181036000830152610b55816109d1565b9050919050565b60006020820190508181036000830152610b7581610a11565b9050919050565b60006020820190508181036000830152610b9581610a77565b9050919050565b60006020820190508181036000830152610bb581610ab7565b9050919050565b6000602082019050610bd16000830184610af7565b92915050565b600082825260208201905092915050565b6000610bf382610cdc565b9150610bfe83610cdc565b9250827fffffffffffffffffffffffffffffffffffffffffffffffffffffffffffffffff03821115610c3357610c32610ce6565b5b828201905092915050565b6000610c4982610cdc565b9150610c5483610cdc565b925082821015610c6757610c66610ce6565b5b828203905092915050565b6000610c7d82610cbc565b9050919050565b60008115159050919050565b60007fffffffff0000000000000000000000000000000000000000000000000000000082169050919050565b600073ffffffffffffffffffffffffffffffffffffffff82169050919050565b6000819050919050565b7f4e487b7100000000000000000000000000000000000000000000000000000000600052601160045260246000fd5b610d1e81610c72565b8114610d2957600080fd5b50565b610d3581610c90565b8114610d4057600080fd5b50565b610d4c81610cdc565b8114610d5757600080fd5b5056fea26469706673582212209a1a867d420f2f84e7291a025ca9836edd5f336adbf706e4d90f763e5025067f64736f6c63430008000033",
  "immutableReferences": {},
  "source": "// SPDX-License-Identifier: MIT\npragma solidity ^0.8.0;\n\nimport './ERC721.sol';\nimport './interfaces/IERC721Enum.sol';\n\n\ncontract ERC721Enumerable is ERC721, IERC721Enum {\n\n  uint256[] private _allTokens;\n\n  //mapping from tokenId to position in _allTokens array\n  mapping(uint256 => uint256) private _allTokensIndex;\n\n  //mapping of owner to list of all owner token ids\n  mapping(address => uint256[]) private _ownedTokens;\n\n  //mapping from token ID index of the owner tokens list\n  mapping(uint256 => uint256) private _ownedTokensIndex;\n\n  constructor () {\n    _registerInterface(bytes4(keccak256('totalSupply(bytes4)')\n    ^keccak256('tokenByIndex(bytes4)')\n    ^keccak256('tokenOfOwnerByIndex(bytes4)')\n  ));\n\n  }\n\n\n//function tokenByIndex(uint256 _index) external view returns (uint256);\n\n//function tokenOfOwnerByIndex(address _owner, uint256 _index) external view returns (uint256);\n\nfunction _mint(address to, uint256 tokenId) internal override(ERC721) {\n  super._mint(to, tokenId);\n  addTokensToAllEnumeration(tokenId);\n  addTokensToOwnerEnumeration(to, tokenId);\n}\n\n//add the tokens to the array, and also set the position of the index.\nfunction addTokensToAllEnumeration(uint256 tokenId) private {\n  //tokenId added to _allTokensIndex\n  _allTokensIndex[tokenId] = _allTokens.length;\n  _allTokens.push(tokenId);\n}\n\n//Most of all functions are being passed the tokenId.\nfunction addTokensToOwnerEnumeration(address owner, uint256 tokenId) private {\n  //add address and tokenId to the _ownedTokens.\n  //ownedTokensIndex tokenId set to address of ownedTokens position\n  //Execute function with minting.\n\n  _ownedTokens[owner].push(tokenId);\n  _ownedTokensIndex[tokenId] = _ownedTokens[owner].length;\n}\n\n//returns tokenByIndex and tokenOfOwnerByIndex\nfunction tokenByIndex(uint256 index) public view override returns(uint256) {\n  //we want the index, and push through the index to allTokens\n  //make sure the index is not of bounds of totalSupply\n  require(index < totalSupply(), \"index is out of bounds\");\n  return _allTokens[index];\n}\n\nfunction tokenOfOwnerByIndex(address owner, uint256 index) public view override returns(uint256) {\n  //make sure the index of the owner isn't out of bounds.\n  require(index < balanceOf(owner));\n  return _ownedTokens[owner][index];\n}\n\nfunction totalSupply() public view override returns(uint256) {\n  return _allTokens.length;\n}\n\n}\n",
  "sourcePath": "/Users/chypchrome/Desktop/NFT-Marketplace/nft-marketplace-starter-kit/contracts/ERC721Enumerable.sol",
  "compiler": {
    "name": "solc",
    "version": "0.8.0+commit.c7dfd78e.Emscripten.clang"
  },
  "schemaVersion": "3.4.4",
  "updatedAt": "2022-01-15T03:13:05.684Z",
  "devdoc": {
    "kind": "dev",
    "methods": {
      "balanceOf(address)": {
        "details": "NFTs assigned to the zero address are considered invalid, and this  function throws for queries about the zero address.",
        "params": {
          "_owner": "An address for whom to query the balance"
        },
        "returns": {
          "_0": "The number of NFTs owned by `_owner`, possibly zero"
        }
      },
      "ownerOf(uint256)": {
        "details": "NFTs assigned to zero address are considered invalid, and queries  about them do throw.",
        "params": {
          "_tokenId": "The identifier for an NFT"
        },
        "returns": {
          "_0": "The address of the owner of the NFT"
        }
      },
      "totalSupply()": {
        "returns": {
          "_0": "A count of valid NFTs tracked by this contract, where each one of  them has an assigned and queryable owner not equal to the zero address"
        }
      },
      "transferFrom(address,address,uint256)": {
        "details": "Throws unless `msg.sender` is the current owner, an authorized  operator, or the approved address for this NFT. Throws if `_from` is  not the current owner. Throws if `_to` is the zero address. Throws if  `_tokenId` is not a valid NFT.",
        "params": {
          "_from": "The current owner of the NFT",
          "_to": "The new owner",
          "_tokenId": "The NFT to transfer"
        }
      }
    },
    "version": 1
  },
  "userdoc": {
    "kind": "user",
    "methods": {
      "balanceOf(address)": {
        "notice": "Count all NFTs assigned to an owner"
      },
      "ownerOf(uint256)": {
        "notice": "Find the owner of an NFT"
      },
      "totalSupply()": {
        "notice": "Count NFTs tracked by this contract"
      },
      "transferFrom(address,address,uint256)": {
        "notice": "Transfer ownership of an NFT -- THE CALLER IS RESPONSIBLE  TO CONFIRM THAT `_to` IS CAPABLE OF RECEIVING NFTS OR ELSE  THEY MAY BE PERMANENTLY LOST"
      }
    },
    "version": 1
  }
}