{
  "contractName": "ERC721Metadata",
  "abi": [
    {
      "inputs": [
        {
          "internalType": "string",
          "name": "named",
          "type": "string"
        },
        {
          "internalType": "string",
          "name": "symboled",
          "type": "string"
        }
      ],
      "stateMutability": "nonpayable",
      "type": "constructor"
    },
    {
      "inputs": [
        {
          "internalType": "bytes4",
          "name": "interfaceId",
          "type": "bytes4"
        }
      ],
      "name": "supportsInterface",
      "outputs": [
        {
          "internalType": "bool",
          "name": "",
          "type": "bool"
        }
      ],
      "stateMutability": "view",
      "type": "function"
    },
    {
      "inputs": [],
      "name": "name",
      "outputs": [
        {
          "internalType": "string",
          "name": "",
          "type": "string"
        }
      ],
      "stateMutability": "view",
      "type": "function"
    },
    {
      "inputs": [],
      "name": "symbol",
      "outputs": [
        {
          "internalType": "string",
          "name": "",
          "type": "string"
        }
      ],
      "stateMutability": "view",
      "type": "function"
    }
  ],
  "bytecode": "0x608060405234801561001057600080fd5b5060405161087638038061087683398181016040528101906100329190610291565b6100617f01ffc9a7a5cef8baa21ed3c5c0d7e23accb804b619e9333b597f47a0d84076e26100e760201b60201c565b8160019080519060200190610077929190610186565b50806002908051906020019061008e929190610186565b506100e07f13b182f4c0e5b2efbac0efe6cf6d756c8b89f4b79c5707a043ed9ea740574ee97f7feaf19471f34a12a7eaf32d5f3090aa2260ea8624dc8a138e74e0bf0f623076186100e760201b60201c565b5050610421565b63ffffffff60e01b817bffffffffffffffffffffffffffffffffffffffffffffffffffffffff1916141561011a57600080fd5b6001600080837bffffffffffffffffffffffffffffffffffffffffffffffffffffffff19167bffffffffffffffffffffffffffffffffffffffffffffffffffffffff1916815260200190815260200160002060006101000a81548160ff02191690831515021790555050565b82805461019290610391565b90600052602060002090601f0160209004810192826101b457600085556101fb565b82601f106101cd57805160ff19168380011785556101fb565b828001600101855582156101fb579182015b828111156101fa5782518255916020019190600101906101df565b5b509050610208919061020c565b5090565b5b8082111561022557600081600090555060010161020d565b5090565b600061023c6102378461032e565b6102fd565b90508281526020810184848401111561025457600080fd5b61025f84828561035e565b509392505050565b600082601f83011261027857600080fd5b8151610288848260208601610229565b91505092915050565b600080604083850312156102a457600080fd5b600083015167ffffffffffffffff8111156102be57600080fd5b6102ca85828601610267565b925050602083015167ffffffffffffffff8111156102e757600080fd5b6102f385828601610267565b9150509250929050565b6000604051905081810181811067ffffffffffffffff82111715610324576103236103f2565b5b8060405250919050565b600067ffffffffffffffff821115610349576103486103f2565b5b601f19601f8301169050602081019050919050565b60005b8381101561037c578082015181840152602081019050610361565b8381111561038b576000848401525b50505050565b600060028204905060018216806103a957607f821691505b602082108114156103bd576103bc6103c3565b5b50919050565b7f4e487b7100000000000000000000000000000000000000000000000000000000600052602260045260246000fd5b7f4e487b7100000000000000000000000000000000000000000000000000000000600052604160045260246000fd5b610446806104306000396000f3fe608060405234801561001057600080fd5b50600436106100415760003560e01c806301ffc9a71461004657806306fdde031461007657806395d89b4114610094575b600080fd5b610060600480360381019061005b9190610252565b6100b2565b60405161006d91906102c3565b60405180910390f35b61007e610119565b60405161008b91906102de565b60405180910390f35b61009c6101ab565b6040516100a991906102de565b60405180910390f35b6000806000837bffffffffffffffffffffffffffffffffffffffffffffffffffffffff19167bffffffffffffffffffffffffffffffffffffffffffffffffffffffff1916815260200190815260200160002060009054906101000a900460ff169050919050565b60606001805461012890610387565b80601f016020809104026020016040519081016040528092919081815260200182805461015490610387565b80156101a15780601f10610176576101008083540402835291602001916101a1565b820191906000526020600020905b81548152906001019060200180831161018457829003601f168201915b5050505050905090565b6060600280546101ba90610387565b80601f01602080910402602001604051908101604052809291908181526020018280546101e690610387565b80156102335780601f1061020857610100808354040283529160200191610233565b820191906000526020600020905b81548152906001019060200180831161021657829003601f168201915b5050505050905090565b60008135905061024c816103f9565b92915050565b60006020828403121561026457600080fd5b60006102728482850161023d565b91505092915050565b6102848161031c565b82525050565b600061029582610300565b61029f818561030b565b93506102af818560208601610354565b6102b8816103e8565b840191505092915050565b60006020820190506102d8600083018461027b565b92915050565b600060208201905081810360008301526102f8818461028a565b905092915050565b600081519050919050565b600082825260208201905092915050565b60008115159050919050565b60007fffffffff0000000000000000000000000000000000000000000000000000000082169050919050565b60005b83811015610372578082015181840152602081019050610357565b83811115610381576000848401525b50505050565b6000600282049050600182168061039f57607f821691505b602082108114156103b3576103b26103b9565b5b50919050565b7f4e487b7100000000000000000000000000000000000000000000000000000000600052602260045260246000fd5b6000601f19601f8301169050919050565b61040281610328565b811461040d57600080fd5b5056fea2646970667358221220a048e3449c0f45c4542169fe19c3bf956927d3aac62e1633e6f3f9edd3e0b0c864736f6c63430008000033",
  "immutableReferences": {},
  "source": "// SPDX-License-Identifier: MIT\npragma solidity ^0.8.0;\n\nimport './interfaces/IERC721Metadata.sol';\nimport './interfaces/ERC165.sol';\n\n\n\ncontract ERC721Metadata is IERC721Metadata, ERC165 {\n  string private _name;\n  string private _symbol;\n\n  constructor(string memory named, string memory symboled){\n    _name = named;\n    _symbol = symboled;\n\n    _registerInterface(bytes4(keccak256('name(bytes4)')^keccak256('symbol(bytes4)')));\n\n  }\n\n  //Accessed externally, but private? We're going to view the information.\n  //View is actually a restriction.\n\n  function name() external override view returns(string memory){\n    return _name;\n  }\n\n  function symbol() external override view returns (string memory) {\n    return _symbol;\n  }\n\n\n\n}\n",
  "sourcePath": "/Users/chypchrome/Desktop/NFT-Marketplace/nft-marketplace-starter-kit/contracts/ERC721Metadata.sol",
  "compiler": {
    "name": "solc",
    "version": "0.8.0+commit.c7dfd78e.Emscripten.clang"
  },
  "schemaVersion": "3.4.4",
  "updatedAt": "2022-01-15T03:13:05.686Z",
  "devdoc": {
    "kind": "dev",
    "methods": {},
    "version": 1
  },
  "userdoc": {
    "kind": "user",
    "methods": {
      "name()": {
        "notice": "A descriptive name for a collection of NFTs in this contract"
      },
      "symbol()": {
        "notice": "An abbreviated name for NFTs in this contract"
      }
    },
    "version": 1
  }
}